S01200005352414D5465737465722E7372656368
S11300000C947A000C9499000C9499000C94990027
S11300100C9499000C9499000C9499000C949900F8
S11300200C9499000C9499000C9499000C949900E8
S11300300C9499000C9499000C9499000C949900D8
S11300400C9499000C9499000C9499000C949900C8
S11300500C9499000C9499000C9499000C949900B8
S11300600C9499000C9499000C9499000C949900A8
S11300700C9499000C9499000C9499000C94990098
S11300800C9499000C9499000C9499000C94990088
S11300900C9499000C9499000C9499000C94990078
S11300A00C9499000C9499000C9499000C94990068
S11300B00C9499000C9499000C9499000C94990058
S11300C00C9499000C9499000C9499000C94990048
S11300D00C9499000C94D5010C942D020C94990065
S11300E00C9499000C9499000C9499000C94990028
S11300F00C94990011241FBECFEFCDBFDFE7DEBF04
S113010010E4A0E0B0E4EAE2F5E000E00BBF02C0D6
S113011007900D92A030B107D9F722E4A0E0B0E433
S113012001C01D92A437B207E1F70E94AB010C9401
S113013093020C94000080E18093A10490E89093D2
S1130140B4048093A604A7EEB5E081E08C93E0E0CC
S1130150FBE096E19183848321E030E024873587B6
S1130160808380933E0293E09C93E0E1FBE096E081
S11301709183848324873587808382E0809340023F
S1130180089510924004E1E8F4E083E080838CEF6A
S1130190809301048FEF8093610488E38093A50426
S11301A08093A10488E08083809385040895CF938D
S11301B0DF9341EA54E080E1FA01808330E8309330
S11301C0B404C6EAD4E08883A7EEB5E081E08C935A
S11301D0E0E0FBE026E12183848362E070E0648751
S11301E07587808380933E0290E2FA019083309376
S11301F0B504988393E09C93E0E1FBE0218384833E
S113020024E030E024873587808322E02093400275
S1130210E0E0FAE091832FEF3FEF26A337A329E034
S113022030E020A731A728E030E022A733A72AE056
S113023030E020A331A316AA17AA8583E0E0F2E0F8
S113024084E8808B85E8818BDF91CF9108958F922C
S11302509F92AF92BF92EF92FF920F931F93CF930F
S1130260DF93209172404B015C0104C0B694A794C3
S1130270979487942A95D2F72091704030917140D9
S113028062237323E6E8F4E053E05083282D2370BF
S113029085E8E82E84E0F82ED7012C9326E034E09C
S11302A04CEFD9014C93182D1C7FC5E0D4E0188382
S11302B004E614E0D8011C92892D9927A5E6B4E040
S11302C08C9388E080830000000000005083862F18
S11302D08370F7018083F80110827C93D9014C93D9
S11302E06C7F6883DF91CF911F910F91FF90EF9006
S11302F0BF90AF909F908F9008950E94270188E04F
S11303008093A60481E08093160B82E08093000220
S11303108091160B80FFFCCF8091480498E0909365
S1130320A50490938504089588E08093850488E368
S11303308093A5048FE697E10197F1F700C00000D0
S113034088E098E09093870400009093870400006D
S11303508150C1F7089588ED84BF84E280936800DA
S11303600E946E02789488E0809321040E949B008E
S11303700E94C1000E94D7000E949401C12CD12C7C
S11303807601C701B6010E947D01F601E050F04CF0
S113039080838FEFC81AD80AE80AF80A84E6C816D8
S11303A0D104E104F10469F7FFCF1F920F920FB655
S11303B00F9211240BB60F922F933F938F939F9319
S11303C0EF93FF939091600880916440811134C051
S11303D080916B40E82FF0E0ED58FF4B9083209123
S11303E0694030916A402F5F3F4F209369403093BA
S11303F06A409A3071F5882381F0319790819D305D
S113040061F4815080936B408091694090916A407F
S113041001978093694090936A40E0916B40F0E0CB
S1130420ED58FF4B108281E0809364401092694044
S113043010926A4010926B40FF91EF919F918F91BF
S11304403F912F910F900BBE0F900FBE0F901F90F6
S113045018958F5F80936B40EFCF1F920F920FB66A
S11304600F9211240BB60F928F939F93EF93FF93E8
S11304708091654090916640892B21F080916408B9
S113048085FD16C08091654090916640892B29F4C2
S1130490809165088F7D80936508FF91EF919F910E
S11304A08F910F900BBE0F900FBE0F901F90189559
S11304B0E091674081E08E0F80936740F0E0ED5853
S11304C0FE4B8081809362088091654090916640E4
S11304D001978093654090936640CACF109268401C
S11304E010926740109265401092664010927342D9
S11304F010926B4010926C401092694010926A40C6
S113050080E197E2809368089093690883E0809380
S1130510670881E08093210480EC8093660880E87A
S10D0520809365080895F894FFCF56
S9030000FC
